{
    "txid": "8e71f6cbfb4a4e958e40de4fc0a55ac35edd691b2f70f5b0de28da4933623188",
    "hash": "8e71f6cbfb4a4e958e40de4fc0a55ac35edd691b2f70f5b0de28da4933623188",
    "version": 1,
    "size": 191,
    "vsize": 191,
    "weight": 764,
    "locktime": 0,
    "vin": [
        {
            "txid": "6a84b6ac4e2f6947933c19312a8aaf986a5a4b5d547f01d65e7622c30e18e2e7",
            "vout": 1,
            "scriptSig": {
                "asm": "304402202d86e79017097bd2894aab9f4672a01bc47f57c6fe50afa00d908329e98d2e7902201edd4075c093a0bc5cd379d71cc36a3198209f2d74613a7a94cc2ef9e5f83a44[ALL] 026692afbff5cbd61014273283df66ee08bdad22b083c87f882283b98042fdb0ce",
                "hex": "47304402202d86e79017097bd2894aab9f4672a01bc47f57c6fe50afa00d908329e98d2e7902201edd4075c093a0bc5cd379d71cc36a3198209f2d74613a7a94cc2ef9e5f83a440121026692afbff5cbd61014273283df66ee08bdad22b083c87f882283b98042fdb0ce"
            },
            "sequence": 4294967295
        }
    ],
    "vout": [
        {
            "value": 0.01999805,
            "n": 0,
            "scriptPubKey": {
                "asm": "OP_DUP OP_HASH160 803f95fb241ec95fe93eb4092aeeab6040005602 OP_EQUALVERIFY OP_CHECKSIG",
                "hex": "76a914803f95fb241ec95fe93eb4092aeeab604000560288ac",
                "address": "xKzkZTLHu875LhMmCk1C8uvBnMUAbgspBf",
                "type": "pubkeyhash"
            }
        }
    ],
    "hex": "0100000001e7e2180ec322765ed6017f545d4b5a6a98af8a2a31193c9347692f4eacb6846a010000006a47304402202d86e79017097bd2894aab9f4672a01bc47f57c6fe50afa00d908329e98d2e7902201edd4075c093a0bc5cd379d71cc36a3198209f2d74613a7a94cc2ef9e5f83a440121026692afbff5cbd61014273283df66ee08bdad22b083c87f882283b98042fdb0ceffffffff01bd831e00000000001976a914803f95fb241ec95fe93eb4092aeeab604000560288ac00000000"
}
